:020000040800F2
:10000000901A0020450100083F170008E51000087D
:100010003D170008050D000821340008000000000D
:100020000000000000000000000000004523000860
:100030007B0E0008000000005B0100085D01000865
:100040005F0100085F0100085F010008DD1F000874
:100050005F0100085F0100085F0100085F01000800
:100060005F0100085F0100085F0100085F010008F0
:100070005F0100085F0100085F0100085F010008E0
:100080005F0100085F0100085F0100085F010008D0
:100090005F0100085F0100085F0100085F010008C0
:1000A0005F0100085F0100085F0100085F010008B0
:1000B0005F0100085F0100085F0100085F010008A0
:1000C0005F0100085F0100085F0100085F01000890
:1000D0005F010008AD290008053200085F01000833
:1000E0007D0E00085F0100085F0100085F01000845
:1000F0005F0100085F0100085F0100085F01000860
:100100005F0100085F0100085F0100085F0100084F
:100110005F0100085F010008592400085F01000822
:100120005F0100085F0100085F0100085F0100082F
:10013000DFF80CD000F026FC0048004779400008AA
:10014000901A00200648804706480047FEE7FEE771
:10015000FEE7FEE7FEE7FEE7FEE7FEE7FEE7FEE777
:100160000924000831010008D2B201E000F8012B97
:10017000491EFBD270470022F6E710B513460A4627
:1001800004461946FFF7F0FF204610BD10B504469F
:1001900004E00B7800F8013B03B1491C521EF8D271
:1001A000204610BD10B5002200E0521C835C8C5C20
:1001B000A34201D1002BF8D1D8B2E1B2401A10BD50
:1001C000F0B480EA0102D40F4200B2EB410F02D238
:1001D0000246084611464A0042D0C30DDDB2C1F3C3
:1001E000C752AD1A202D35DAC1F3160141F40002D1
:1001F00004B15242C5F1200602FA06F12A41104428
:10020000B3EBD05F23D0C4B1012DA0EBC35009DC08
:10021000F0BC4FF0004202EAC352DBB200F500002E
:1002200000F00DBB400000F1807000EBC350A0F166
:10023000807040EAD170490009E0490841EAC07184
:10024000A0EBC35000F50000400800EBC350F0BC29
:1002500000F0ECBA6142012202EB4101001BF6E71B
:10026000F0BC704781F00041AAE780F00040A7E7AA
:1002700080EA010210B502F00043400022D04A009B
:100280001FD0010E01EB1261C0F35600C2F35602FB
:1002900040F4000042F40002A0FB022000047F3979
:1002A000140400D0401C50EA124001D44000491E02
:1002B000C2B20C0604EBD010401C4008802A02D0C9
:1002C00003E0002010BD20F00100002900DA00202A
:1002D000184310BD30B480EA010202F0004530F04E
:1002E000004221F0004013D090B1C30DD40DC2F3F1
:1002F0001601C0F31600E41A41F4000140F40002B4
:100300007D34914201D3641C00E04900002C02DAE4
:1003100030BC002070474FF400000023914201D30D
:10032000891A034340084FEA4101F7D151B1914284
:1003300002D14FF0004105E002D24FF0010101E08F
:100340006FF0010103EBC450284430BC00F06EBADA
:100350002DE9FE4F804681EA0300C00F0C46009055
:1003600021F0004123F00045B8EB0200A94105D27D
:100370004046214690461C460B46024623F000406C
:10038000104347D0270DC7F30A00C3F30A51029068
:10039000401A019040286BDAC3F3130040F4801B2D
:1003A0000098924620B10023D2EB030A63EB0B0BBB
:1003B00001985946C0F14002504600F006FA064640
:1003C0000D4650465946019A00F01EFA10EB0800FF
:1003D0006141002487EA115284EAE7731A4340D04E
:1003E000009A62B3019A012A4FEA075215DC001BFA
:1003F00061EB02014FF0004202EA0752CDE90042F0
:10040000001C41F5801132462B4600F055FA03B02E
:10041000BDE8F08F40462146F9E7001B61EB020181
:10042000001C41F5801300185B412018A2F500174D
:1004300047EB030140EAD570B6196D4111E06D0834
:100440004FEA360645EAC0754FEA0752001B61EBDA
:100450000201001C41F5801149084FEA30000019E3
:10046000514132462B4603B0BDE8F04F00F015BABB
:100470000098012240000023D0EB020263EBE073FE
:10048000009821464FEAE074B8EB000061EB0401EC
:10049000E9E783F000435BE781F0004158E72DE98D
:1004A000FE4F81EA030404F0004421F0004100946F
:1004B0004FF0000B23F0004350EA01045ED052EAF3
:1004C00003045BD0C3F30A54C1F30A552C44A4F2CD
:1004D000F3340194A0FB0254C1F3130141F48011E1
:1004E000C3F3130343F4801301FB024400FB034EE8
:1004F000840A970A44EA815447EA8357A4FB0768B1
:1005000002958D0A05FB07854FEA932C04FB0C54DA
:100510002705029D4FEA065847EA1637B5EB08054E
:100520006EEB070C870E920E47EA811742EA8312A0
:10053000A7FB0201B6EB0B0164EB00042B0D43EAB1
:100540000C335E1844EB1C50DA465146E7FB0201BF
:10055000C5F313044FEA0B3343EA14534FEA043252
:10056000019C43EA0603A4F10C040294009CCDE92B
:1005700000B400F0A1F903B0BDE8F08F00200146FF
:10058000F9E72DE9F04D81EA030404F0004B21F076
:10059000004514464FF0000A23F0004150EA0502DE
:1005A00020D054EA01021DD0C5F30A570246C5F314
:1005B0001303C1F31300C1F30A5640F4801543F44A
:1005C0008013A7EB0608101BD64608F2FD3873EB24
:1005D000050002D308F1010801E092185B41B8F16F
:1005E000000F03DA00200146BDE8F08D00204FF433
:1005F0008011064684460EE0171B73EB050705D3F2
:10060000121B63EB050306434CEA010C49084FEA51
:10061000300092185B4150EA0107EDD152EA030025
:1006200012D082EA040083EA0501084305D0101BBA
:10063000AB4106D20122002306E000224FF0004326
:1006400002E06FF0010253101AEB06004CEB085168
:1006500010EB0A0041EB0B01BDE8F04D00F01DB9B5
:10066000C10F80EAE0700844CA079623002100F019
:10067000E6B896230022114600F0E1B800F00042EF
:1006800020F00040C10DC0F3160040F400007F29A7
:1006900001DA00207047962903DCC1F19601C840B9
:1006A00001E096398840002AF4D04042704700F0BB
:1006B000004230F000400AD0C10D01F56071C0F376
:1006C000160042EA0151C20840071143704700205A
:1006D0000146704730B5041E71F1000404DB4FF091
:1006E0000044404264EB0101141E73F1000405DB79
:1006F0001C464FF00043524263EB0403994208BF8B
:10070000904230BD01F0004330B421F0004150EA86
:10071000010206D00A0DA2F56072C1F31301002A8E
:1007200002DC30BC00207047440F44EAC104C10021
:10073000E01830BC00EBC25000F078B830B50B4682
:10074000014600202022012409E021FA02F59D4201
:1007500005D303FA02F5491B04FA02F52844151ED5
:10076000A2F10102F1DC30BD2DE9F05F0546002069
:1007700092469B4688460646814640241BE0284612
:1007800041464746224600F02FF853465A46C01AC3
:10079000914110D311461846224600F016F82D1A42
:1007A00067EB01084F4622460120002100F00DF8BA
:1007B00017EB00094E41201EA4F10104DFDC48467E
:1007C00031462A464346BDE8F09F202A04DB203A02
:1007D00000FA02F1002070479140C2F1200320FA94
:1007E00003F3194390407047202A04DB203A21FA92
:1007F00002F00021704721FA02F3D040C2F120023A
:100800009140084319467047202A06DBCB17203A4F
:1008100041FA02F043EAE07306E041FA02F3D04005
:10082000C2F1200291400843194670470029A8BF31
:100830007047401C490008BF20F00100704710B409
:10084000B0FA80FC00FA0CF050EA010404BF10BCBE
:10085000704749B1CCF1200421FA04F411FA0CF1EB
:1008600018BF012121430843A3EB0C01CB1D4FEA24
:1008700000614FEA102042BF002010BC704700EB1F
:10088000C35010440029A4BF10BC7047401C49004D
:1008900008BF20F0010010BC704710B5141E73F1A2
:1008A000000408DA401C41F1000192185B411A4330
:1008B00001D120F0010010BD2DE9F04D92469B467C
:1008C00011B1B1FA81F202E0B0FA80F22032904622
:1008D000FFF77BFF04460F4640EA0A0041EA0B019E
:1008E00053465A46084313D0114653EA010019D023
:1008F000C8F140025046FFF777FF05460E465046C6
:1009000059464246FFF761FF084305D0012004E045
:1009100020463946BDE8F08D0020054346EAE076E2
:100920002C4337430A986305E40AA0EB0800002231
:10093000FD0A44EA47540A3002D500200146E9E79F
:10094000010510196941DDE9084500196941BDE853
:10095000F04DA2E7C1F30A52C1F3130140F2FF3395
:1009600041F480119A4202DA00200146704740F2B9
:1009700033439A42A2F2334202DC5242FFF734BFC1
:10098000FFF723BF064C074D06E0E06840F0010387
:1009900094E8070098471034AC42F6D3FFF7CCFB3D
:1009A000B84B0008D84B000870B58C1810F8015BE4
:1009B00015F0070301D110F8013B2A1106D110F8F8
:1009C000012B03E010F8016B01F8016B5B1EF9D1FC
:1009D0002B0705D40023521E0DD401F8013BFAE782
:1009E00010F8013BCB1A921C03E013F8015B01F8ED
:1009F000015B521EF9D5A142D8D3002070BD002959
:100A0000816802D041F0010101E021F00101816023
:100A100070470029816802D041F4807101E021F41F
:100A2000807181607047014600208968490700D5C0
:100A300001207047014600208968090700D5012080
:100A40007047000010B542680E4B0C791A400B68D5
:100A500042EA04221343436082680B4B1A40D1E9F7
:100A6000024323434C7942EA440213438360C26A3F
:100A7000097C22F47002491EC9B242EA0151C162E6
:100A800010BD0000FFFEF0FFFDF7F1FF70B5072677
:100A900009290AD9C568A1F10A0404EB4404A64057
:100AA000B543A3401D43C56007E0056901EB410460
:100AB000A640B543A3401D4305611F23072A09D261
:100AC000446B521E02EB820293409C4391400C43C4
:100AD000446370BD0D2A09D2046BD21F02EB82025F
:100AE00093409C4391400C43046370BDC46A0D3A2B
:100AF00002EB820293409C4391400C43C46270BD60
:100B0000816841F00801816070470029816802D046
:100B100041F4A00101E021F4A001816070478168E7
:100B200041F00401816070472DE9F041144F002528
:100B30004FF47A780026344607EB840030F815002D
:100B4000FFF797FD3146FFF73BFB641CA4B2064656
:100B50004445F1D30B49FFF7BDFBFFF7A8FD4FF06C
:100B60006632094BFFF79BFCFFF7CCFD074941F8C4
:100B700025006D1CADB2022DDCD3BDE8F081000074
:100B8000E606002000007A4A66660A4070030020EC
:100B900070B592B001214FF4017001F05DF80121B0
:100BA000084601F035F84FF4004001F027F8002422
:100BB000374E8DF843400125ADF8405010A930461E
:100BC00000F032FA8DF843400420ADF8400010A93F
:100BD000304600F029FA8DF831504FF46020CDE90D
:100BE0000D048DF8305002202A4D8DF83C000B94F6
:100BF0000BA92846FFF726FF0723012200212846DC
:100C0000FFF744FF0222072311462846FFF73EFF65
:100C100001212846FFF7FDFE01212846FFF7EFFEE0
:100C20002846FFF76DFF2846FFF704FF0028FAD19A
:100C30002846FFF774FF2846FFF7F5FE0028FAD193
:100C4000154E304600F08AF8124869464C30009044
:100C50001248CDE901044FF4FA60CDE90304802085
:100C60000590400006908000079020200890000228
:100C7000CDE90904304600F0E3F80121304600F0E8
:100C800061F801212846FFF740FF12B070BD000057
:100C9000000801400024014008000240E606002050
:100CA00070B5084C00250146657007A002F026FCCF
:100CB0006078012803D0322003F0D0F8F8E765709F
:100CC00070BD00006603002025730D0A00000000BF
:100CD00010B5012000F0D8FFBDE81040002000F062
:100CE000D3BF000008B5024908440090008808BD41
:100CF000006C004008B5024A10440090016008BD35
:100D0000006C0040FEE70000094810B50068FFF7DE
:100D1000CEFC084A084BFFF7BCFB084A084BFFF71C
:100D200030FCFFF7EFFC10F1FF4F00D3002010BDA7
:100D300070030020A4703D0AD7A30440AE47E17AB7
:100D400014AEC73F0029016802D041F0010102E062
:100D50004FF6FE72114001607047000001684FF6C7
:100D6000FE72114001600021016041608160C1603C
:100D70003149314A0839904203D1486840F00F00A8
:100D800006E02D4A1432904204D1486840F0F00049
:100D900048607047284A2832904203D1486840F49E
:100DA0007060F5E7244A3C32904203D1486840F431
:100DB0007040EDE7204A5032904203D1486840F439
:100DC0007020E5E71C4A6432904203D1486840F441
:100DD0007000DDE7184A7832904203D1486840F04D
:100DE0007060D5E7154A111F904203D1086840F0A2
:100DF0000F0006E0114A1432904204D1086840F016
:100E0000F000086070470D4A2832904203D108680C
:100E100040F47060F5E7094A3C32904203D108681B
:100E200040F47040EDE7054A50329042EAD108683C
:100E300040F47020E5E7000008000240080402408A
:100E400030B5026847F6F0739A430C6A8B68234307
:100E5000D1E904452C4323438C692343CC692343C4
:100E60004C6A23438C6A234313430360CA6842607D
:100E70000A6882604968C16030BD70472DE9FC5F37
:100E80004FF4005B584600F073F800250127304C02
:100E900010264FF0020840F2DC5A28B3642002F01A
:100EA000DDFF278010232BA20621002000F0FDFD8E
:100EB00003231A460621102000F068FD02F0B2FA62
:100EC000CDE90086024602230621402000F008FEFC
:100ED000102356220621662000F06EFD504602F0D7
:100EE000BDFF258000F068FC4FF48049484600F0C3
:100EF0003FF828B3C82002F0B1FF2780102315A2C5
:100F00000621002000F0D1FD062203231146102007
:100F100000F03CFDFFF7F8FECDE900860246022313
:100F20000621402000F0DCFD10234122062166202E
:100F300000F042FD504602F091FF258000F03CFC9D
:100F4000584600F00FF84846BDE8FC5F00F00AB8CC
:100F50007803002020202020202020202020202076
:100F6000202000000149086070470000140401407F
:100F7000064A014600201268044B0A4014331B68DD
:100F80000B4202D0002A00D001207047000401402B
:100F900030B51A4A8379016853B313688B431360E1
:100FA000111D0B680468A3430B60017911440B68A1
:100FB000046823430B60114B083319680468A1438C
:100FC00019601C1D21680568A94321604179102919
:100FD00005D011440A68006802430A6030BD1968F0
:100FE000026811431960216800680143216030BD27
:100FF0000079104402688A43026030BD0004014059
:1010000010B58A0721F003040649120F21440F236B
:101010008C6893409C438C608B68904003438B604A
:1010200010BD000000000140F0B5CC78002204F0B3
:101030000F03E40601D58C7823430C784FF00F0C96
:1010400014F0FF0F4FF0010E1BD005680E880EFA4A
:1010500002F42640A64210D196000CFA06F725EAC3
:10106000070703FA06F5CE783D43282E02D0482E16
:1010700002D002E0446100E00461521C082AE5D37A
:1010800005600A88FF2A1CD94468002202F108067C
:101090000EFA06F50E882E40AE420ED196000CFADE
:1010A00006F7BC4303FA06F7CE783C43282E00D15E
:1010B0004561CE78482E00D10561521C082AE5D33F
:1010C0004460F0BD02460020D2680A4200D00120F0
:1010D000704741617047016170470AB10161704713
:1010E00041617047FEE700001CB504460846FFF763
:1010F000DEFACDE90001234602A205A10D4802F067
:10110000FDF91CBD426173696344617461000000B4
:101110003634383330633939303135353461353927
:1011200033333966646634315F32303233303630CF
:1011300039000000584A00082DE9F04F8BB0814675
:10114000DDE914A01C4690468B46FFF7B0FA064630
:101150000F462046FFF7ABFA04460D465846FFF708
:10116000A6FA8DE803010DF1100C4B468CE8300413
:1011700004A207A10F48CDE9086702F0BFF90BB040
:10118000BDE8F08F426173696344617461000000DF
:1011900036343833306339393031353534613539A7
:1011A00033333966646634315F323032333036304F
:1011B00039000000DC4A000870B54FF47A76C0B000
:1011C0000024304602F04AFE5B4D687801280DD0BD
:1011D000092C7DD059A002F091F9304602F03EFE74
:1011E000641CE4B20A2CF0D340B070BD55A0FFF7E8
:1011F00057FD00F0E1FA0021102353A2084600F049
:1012000054FC54A002F07AF94FF4E16002F026FE9B
:101210004CA0FFF745FD52A0FFF742FD00F0CCFACD
:101220000021102351A2084600F03FFC52A355A212
:1012300056A1684602F072F96846FFF731FD00F0EA
:10124000BBFA0021102356A2084600F02EFC102302
:101250004CA20221002000F028FC304602F0FEFDE6
:1012600053A0FFF71DFD00F0A7FA0021102355A29F
:10127000084600F01AFC564B56A25FA1684602F0E1
:101280004DF96846FFF70CFD00F096FA0021102397
:1012900064A2084600F009FC66A273A1684602F049
:1012A0003DF96846FFF7FCFC00F086FA00211023A8
:1012B00073A2084600F0F9FB75A377A283A16846E4
:1012C00002F02CF96846FFF7EBFC00F075FA00E03D
:1012D00026E00021102383A2084600F0E6FB3DA291
:1012E00083A1684602F01AF96846FFF7D9FC00F0BE
:1012F00063FA002110238CA2084600F0D6FB35A229
:101300008CA1684602F00AF96846FFF7C9FC31A2D1
:1013100094A1684602F002F96846FFF7C1FC63E752
:101320009EA002F0EBF800F047FA00211023A2A2E1
:10133000084600F0BAFB57E76603002041540D0A47
:101340000000000041540000506F776572204F4E3E
:101350000000000041542B5253540D0A00000000BD
:1013600041542B43574D4F44453D310041542B438D
:10137000574D4F444500000031323334353637384D
:10138000380000004C6962726172790041542B434D
:10139000574A41503D222573222C222573220000FA
:1013A000434F4E4E45435420535349443A000000A6
:1013B00041542B434950534E54504346473D312CE2
:1013C0003800000053455420474D542B380000008E
:1013D000744B0008363438333063393930313535A1
:1013E0003461353933333966646634315F323032D3
:1013F000333036303900000041542B4D5154545590
:101400005345524346473D302C312C224E554C4CCF
:10141000222C222573222C222573222C302C302CB6
:101420002222000041542B4D5154545553455243F0
:10143000464700003634383330633939303135357A
:101440003461353933333966646634315F32303272
:1014500033303630395F305F305F323032333036E0
:10146000303931320000000041542B4D5154544367
:101470004C49454E5449443D302C222573220000EE
:1014800041542B4D515454434C49454E544944000A
:10149000313838330000000033383730326330657C
:1014A00037392E696F742D6D717474732E636E2DC0
:1014B0006E6F7274682D342E6D7968756177656909
:1014C000636C6F75642E636F6D00000041542B4D8B
:1014D000515454434F4E4E3D302C222573222C251F
:1014E000732C310041542B4D515454434F4E4E00F8
:1014F00041542B4D5154545355423D302C22246FAE
:10150000632F646576696365732F25732F73797311
:101510002F70726F706572746965732F7265706F6A
:101520007274222C3100000041542B4D51545453FD
:101530005542000041542B4D5154545355423D30B7
:101540002C22246F632F646576696365732F25737E
:101550002F7379732F636F6D6D616E64732F232208
:101560002C31000041542B4D5154545355423D30C1
:101570002C22246F632F646576696365732F25734E
:101580002F7379732F636F6D6D616E64732F726546
:1015900073706F6E73652F23222C3100436F6E6E54
:1015A000656374656420455350303173204661692A
:1015B0006C210D0A00000000434F4E4E4543544538
:1015C00044204641494C440070B50B4D4FF48054C3
:1015D00021462846FFF77FFDA61031462846FFF733
:1015E0007AFD31462846FFF774FD21462846BDE8BE
:1015F0007040FFF76EBD00000010014070B5084C50
:101600004FF480512046FFF766FD251529462046F8
:10161000FFF75FFD29462046BDE87040FFF75BBD40
:101620000010014070B5064D4FF480542146284605
:10163000FFF751FD21462846BDE87040FFF749BD40
:101640000010014081070CD16421B0FBF1F201FBD5
:10165000120141B94FF4C871B0FBF1F201FB120065
:1016600008B100207047012070470000F0B589B034
:101670000121042000F0D8FA0121092000F0ECFA41
:101680004FF43070ADF81C0003208DF81E001820B8
:101690008DF81F0007A92748FFF7C6FC264F3846DC
:1016A00000F0A0FF384601F069F840F2E730ADF8ED
:1016B000140040F2CF20ADF810000024ADF8124025
:1016C000ADF8164004A9384601F022F9684601F049
:1016D0000DF96025ADF800500126ADF80640ADF8D3
:1016E0000840ADF802606946384601F0CDF8ADF823
:1016F0000050ADF80640ADF80840ADF8026069460C
:10170000384601F081F8ADF80050ADF80640ADF86C
:101710000840ADF802606946384601F035F801210D
:10172000384600F053FF0121384600F045FF09B06C
:10173000F0BD0000000C014000080040FEE77047CB
:1017400030B50F23C27801780125F2B1144A12682E
:1017500001F1E02102F4E062C2F5E062120AC2F196
:101760000404D3404278A24084781C4014432201F0
:1017700081F80024007800F01F018D4040098000AE
:1017800000F1E020C0F8005130BD01F01F0085409D
:101790004809800000F1E020C0F8805130BD000011
:1017A0000CED00E002490843024908607047000060
:1017B0000000FA050CED00E070B50025002105F1F0
:1017C000B00000F002FA0021084600F0FEF9002106
:1017D000102000F0FAF900240121002000F0F5F9B2
:1017E000641CE4B2802CF7D36D1CEDB2082DE5D358
:1017F00070BD000038B50121102000F02DFA4FF423
:10180000A054ADF8004010208DF8030003203F4D98
:101810008DF8020069462846FFF706FC2146284657
:10182000FFF759FC4FF4487002F018FB0021AE207E
:1018300000F0CBF90021084600F0C7F90021102084
:1018400000F0C3F90021402000F0BFF90021B020D2
:1018500000F0BBF90021812000F0B7F90021FF2042
:1018600000F0B3F90021A12000F0AFF90021A6207B
:1018700000F0ABF90021A82000F0A7F900213F20DB
:1018800000F0A3F90021C82000F09FF90021D32027
:1018900000F09BF90021084600F097F90021D520BF
:1018A00000F093F90021802000F08FF90021D8206A
:1018B00000F08BF90021052000F087F90021D920E4
:1018C00000F083F90021F12000F07FF90021DA20F7
:1018D00000F07BF90021122000F077F90021DB20D5
:1018E00000F073F90021302000F06FF900218D2005
:1018F00000F06BF90021142000F067F90021AF20FF
:1019000000F063F9FFF758FF38BD000000100140F8
:1019100010B50A460446002102F1B00000F055F966
:10192000102040EA1410002100F04FF904F00F00DD
:10193000BDE81040002100F048B900002DE9F04159
:1019400015460E460746FFF7E3FF0F48002400EB5D
:1019500085150121285D00F038F9641CE4B2102CD3
:10196000F7D3761CF1B23846FFF7D2FF00242819CE
:10197000012190F8200000F028F9641CE4B2102C3A
:10198000F5D3BDE8F0810000660000202DE9F041AC
:101990001D46164688460746002409E0A019C2B233
:1019A00007EB0410C0B24146FFF7C8FF641CE4B265
:1019B000AC42F3D3BDE8F0812DE9F041203A002498
:1019C0000F468046D5B27F2803D900208F1C804661
:1019D000FFB2102B394610D0FFF79AFF164905EBDE
:1019E000450001EB40050121285D00F0EEF8641C84
:1019F000E4B2062CF7D3BDE8F081FFF789FF0F4E64
:101A000004EB05100121305C00F0DFF8641CE4B247
:101A1000082CF5D37F1CF9B24046FFF779FF00246C
:101A200004EB051030440121007A00F0CEF8641C6C
:101A3000E4B2082CF4D3DEE7DC41000804440008DB
:101A40002DE9F05F0027DDF828A01D4691468B4662
:101A500080463C464FEA5A0623E0281B401EC1B28E
:101A60000A2002F045FBB9FBF0F00A21B0FBF1F2CD
:101A700001FB120027B9691E8C4201DA38B1012737
:101A80003030C2B206FB0480C0B2534604E006FB0D
:101A90000480C0B2534620225946FFF78DFF641CD4
:101AA000E4B2AC42D9D3BDE8F09F2DE9F0419846AD
:101AB00017460E46044600250DE0434631462046B3
:101AC000FFF77AFF0834E4B2782C02D90024B61C60
:101AD000F6B26D1CEDB27A5D002AEED1BDE8F08160
:101AE0002DE9FF5F07461D46DDF838800298FEF7B6
:101AF000C5FD82460F9800244FF00A0B460825E0EA
:101B0000281B401EC1B20A2002F0F2FABAFBF0F123
:101B1000B1FBFBF20BFB1210B9F1000F05D1691EEE
:101B20008C4202DA40B14FF001093030C2B206FBFC
:101B30000470C0B20F9B04E006FB04700F9BC0B2A0
:101B400020220199FFF738FF641CE4B2AC42D7D3DE
:101B500006FB0570C0B22E220F9B0199FFF72CFFE8
:101B600041460A2002F0C4FAFEF783FD04465046BF
:101B7000FEF776FD0299FEF778FB2146FEF778FB2B
:101B8000FEF77CFD002481467F1D1AE0A8EB0400CF
:101B9000401EC1B20A2002F0ABFAB9FBF0F1B1FB72
:101BA000FBF20BFB1210611906FB017101F0FF0C37
:101BB0003030C2B260460F9B0199FFF7FDFE641CF6
:101BC000E4B24445E2D3BDE8FF9FC0B209B101F0E1
:101BD0007EBC01F065BC000001490862704700004E
:101BE00000000E4210B5FFF78FF8044601F01AFC12
:101BF0002146BDE81040FEF73BBB0000034A516898
:101C000021F4404101435160704700000010024040
:101C1000044A0029516901D0014300E08143516128
:101C20007047000000100240044A0029D16901D029
:101C3000014300E08143D161704700000010024081
:101C4000044A0029116901D0014300E08143116178
:101C50007047000000100240044A0029916901D039
:101C6000014300E081439161704700000010024091
:101C7000044A0029D16801D0014300E08143D160CA
:101C800070470000001002400149086070470000E2
:101C90004004424230B5204A5168204B11F00C01FB
:101CA00003D0042901D0082901D0036012E0516853
:101CB000536801F470114FF0020413F4803F04EBF9
:101CC000914102D053689B0301D5154B00E0134BA3
:101CD0005943016051680F2303EA1111114B5C5CF9
:101CE0000168E14041605468072505EA14241C5D41
:101CF00021FA04F48460546805EAD4241B5DD940B9
:101D0000C1605268032303EA9232064B1B1F9A5CA0
:101D1000B1FBF2F1016130BD0010024000127A0007
:101D200000093D0052000020034600205909094ADD
:101D300001290AD002290AD0516A03F01F020123A7
:101D400093400B4200D0012070471168F5E7116AFB
:101D5000F3E70000001002400149086070470000EE
:101D60008004424201490860704700003C0442423E
:101D700002490A6A02430A627047000000100240EA
:101D80002DE9F05F9A4605460023A0F2B270DDF817
:101D900028B091468846822802D30120BDE8F09FF2
:101DA00040F2B274254E264F08E02046FFF74AFC69
:101DB00008B1334400E03B44641CA4B2AC42F4D309
:101DC000A8F10100C6B200241E4FDFF87C800EE0AF
:101DD000385D40F2A321484303EBC0132846FFF7C8
:101DE00031FC10B1012C00D14344641CA4B2B442B4
:101DF000EED340F2A32109FB01F0134903EBC0101D
:101E000049420144CAEB4A12C2EB0A2001EB00111D
:101E1000CBEB0B1001EB80000B99441801214FF024
:101E2000C050FFF701FF0120FFF7D6FE204600F06B
:101E300045FA00F073FA0020B0E700000085E201E7
:101E40008033E101004A00088051010002490A88FC
:101E500082430A807047000004280040024801883D
:101E600041F01001018070470428004002480188B9
:101E700021F0100101807047042800402DE9F0474F
:101E800000F06AF8DFF8C0800546B0FBF8F32F4891
:101E90002F4E418899422FD0438040F2B2744FF4C4
:101EA000B7774FF4B6790FE02046FFF7CBFB38B198
:101EB000BB4202D3A3F5B77304E0641CA4B205E0EF
:101EC000A3F26D13641CA4B24B45EDD8B48000247A
:101ED000204F0BE0B088FFF7B5FB08B1012C2ED0E6
:101EE000385D984204D81B1A641CA4B21C2BF1D292
:101EF000641CB4715B1CF371B5FBF8F108FB115065
:101F00004FF46161B0FBF1F23270B0FBF1F201FB12
:101F100012033C22B3FBF2F37370B0FBF1F301FB4D
:101F20001300B0FBF2F102FB1100B070F279B1794D
:101F3000B08800F02BF830720020BDE8F0871D2B30
:101F4000D6D31D3BD0E7000080510100780300206C
:101F500086160020004A0008034800880249091F2D
:101F6000098840EA014070471C280040064909885A
:101F7000C2B21140044A121F1288024202D009B1B3
:101F800001207047002070470428004030B56423CA
:101F9000B0FBF3F4B0FBF3F5E4B203FB1500132C34
:101FA00001D96430C0B200EB90030724B3FBF4F511
:101FB00004FB1533084D1A440D44800715F8015CE5
:101FC0002A4492B203D1032901D2521E92B2B2FB2B
:101FD000F4F004FB102030BDF44900082DE9FC4763
:101FE0000120FFF7C3FF08B1FFF748FF0220FFF70A
:101FF000BDFF00286AD00220FFF728FFFFF73EFF51
:10200000364C374D4FF00008A0884FF4967618B143
:10201000A14601281BD053E00021284600F070FCA7
:102020000021284600F06EFC0021284600F06CFCE0
:10203000304601F013FF2BA0CDE9000800234546F0
:1020400029A2194629A0FFF777F8258038E0234C0C
:10205000A41D208840B9608830B9A08820B94FF409
:10206000C87020806080A0802188284600F048FC4D
:102070006188284600F046FCA188284600F044FC10
:10208000304601F0EBFEA0880A25B0FBF5F0FEF724
:10209000F0FA07466088B0FBF5F0FEF7EAFA06466C
:1020A0002088B0FBF5F0FEF7E4FA01460DA0CDE97B
:1020B000000733460CA20DA0FFF73EF8A9F80080F8
:1020C00018230BA206210020FFF7EFFC0520FFF7E5
:1020D000BDFEBDE8FC4700F021B9000078030020F8
:1020E000000800404C3300004C3200004C3100002E
:1020F0002020202020202020202020200000000060
:10210000044A0029118801D0014300E08143118075
:1021100070470000002800407CB5002401214FF0EA
:10212000C050FFF781FD0120FFF756FD0120FFF7AA
:1021300013FE0420FEF7D6FD45F250060025B042FE
:102140003CD0FEF7C5FD04E0641CE4B20A2001F0B7
:1021500085FE6120FFF7E8FD18B1FA2C04D30120B9
:102160007CBDFA2CF0D3FAE74FF40070FFF700FEC5
:102170000120FFF7F7FD00F0D1F800F0D7F80121BA
:102180000320FFF7BDFF00F0C9F8FFF767FE49F62F
:10219000404000F0B3F800F0C1F81420CDE900058C
:1021A00002461123052140F2D17000F021F8FFF71B
:1021B0005DFE31460420FEF79DFD07E000F0B6F815
:1021C00001210320FFF79CFF00F0A8F803208DF801
:1021D00000008DF801508DF8025001208DF80300A9
:1021E0006846FFF7ADFAFFF749FE00207CBD00000E
:1021F0002DE9F05F9A4605460023A0F2B270DDF8A3
:1022000028B091468846822802D30120BDE8F09F7D
:1022100040F2B274254E264F08E02046FFF712FA2E
:1022200008B1334400E03B44641CA4B2AC42F4D394
:10223000A8F10100C6B200241E4FDFF87C800EE03A
:10224000385D40F2A321484303EBC0132846FFF753
:10225000F9F910B1012C00D14344641CA4B2B4427A
:10226000EED340F2A32109FB01F0134903EBC010A8
:1022700049420144CAEB4A12C2EB0A2001EB0011A9
:10228000CBEB0B1001EB80000B99441801214FF0B0
:10229000C050FFF7C9FC0120FFF79EFC204600F06C
:1022A0001DF800F03BF80020B0E700000085E201D7
:1022B0008033E101004A00088051010000B5024668
:1022C000FFF7CCFD0449100C0880081D02805DF862
:1022D00004EBFFF7CBBD00002028004000B502460C
:1022E000FFF7BCFD0449100C0880081D02805DF852
:1022F00004EBFFF7BBBD00001828004000B5024604
:10230000FFF7ACFD0449C2F303400880081D0280BA
:102310005DF804EBFFF7AABD0828004002480188D9
:102320008906FCD570470000042800400448018855
:1023300021F00801018001880907FCD570470000E1
:1023400004280040704700000CB500222648009287
:102350000192016841F4803101604FF4A06301688B
:1023600001F4003101910099491C0091019911B9C2
:1023700000999942F3D10168890333D50121019174
:102380001A490A6842F010020A600A6822F007023D
:102390000A600A6842F002020A60416841604168CE
:1023A0004160416841F480614160416821F47C11E1
:1023B0004160416841F4E8114160016841F0807179
:1023C000016001688901FCD5416821F00301416089
:1023D000416841F0020141604168C1F38101022975
:1023E000FAD10CBD01920CBD001002400020024049
:1023F0004FF0E0210428086903D020F004000861B0
:10240000704740F00400FAE70F4810B5016841F04A
:102410000101016041680D4A1140416001680C4AA8
:1024200011400160016821F480210160416821F4BC
:10243000FE0141604FF41F018160FFF785FF0549F0
:102440004FF00060086010BD001002400000FFF86F
:10245000FFFFF6FE08ED00E07CB51F4C0121204691
:1024600000F078F9002835D00121204600F0A1F8CD
:102470001A4D241421462846FEF724FEC0F101001F
:10248000C2B221462846FEF728FEFEF74DFBFFF7B5
:10249000A9FB0446FEF738FC054600F0C3FF0146E1
:1024A0000FA0CDE900042B460FA211A0FEF744FEB9
:1024B00011490888401C80B2088078280AD1002081
:1024C00008804FF4FA7001F0C9FCBDE87C400BA015
:1024D00001F014B87CBD0000001000400010014065
:1024E000706F77657200000063757272656E7400BC
:1024F000766F6C74616765008403002041542B4340
:102500004950534E545054494D453F0D0A00000068
:10251000F0B50D46064685B001211020FFF784FB7B
:1025200001211020FFF798FB4FF48044ADF81040D4
:1025300010208DF8130003201A4F8DF8120004A903
:102540003846FEF771FD21463846FEF7C2FD0021F0
:10255000ADF80610ADF80210134CADF80460ADF8FC
:1025600000506946204600F0D3F90122114620466A
:1025700000F0FCF80121204600F018F80121204667
:1025800000F01AF836208DF80C0002208DF80D00AE
:1025900001208DF80E008DF80F0003A8FFF7D0F88A
:1025A00005B0F0BD0010014000100040C943018299
:1025B0007047C943018270470029018802D041F069
:1025C000010101E021F0010101807047002930F88C
:1025D000441F02D041F4004101E0C1F30E0101802B
:1025E000704700004B4910B5884202D10121C41444
:1025F00086E0B0F1804F09D0474988420DD10121D2
:102600000220FFF71DFB0021022064E001210846A3
:10261000FFF716FB002101205DE04049884206D10A
:1026200001210420FFF70CFB0021042053E03C496A
:10263000884206D101210820FFF702FB0021082073
:1026400049E03849884206D101211020FFF7F8FA05
:10265000002110203FE03449884206D1012120208A
:10266000FFF7EEFA0021202035E03049884202D100
:102670000121441444E02E49884202D10121CC04B6
:102680003EE02C49884202D101210C0538E02A495C
:10269000884202D101214C0532E02849884206D106
:1026A00001214020FFF7CCFA0021402013E024490B
:1026B000884206D101218020FFF7C2FA0021802044
:1026C00009E0204988420AD1841501212046FFF7FC
:1026D000B7FA00212046BDE81040FFF7B1BA1A4909
:1026E000884202D101210C040AE01849884202D133
:1026F00001214C0404E0164988420AD101218C04CE
:102700002046FFF7B5FA2046BDE810400021FFF74C
:10271000AFBA10BD002C014000040040000800408A
:10272000000C004000100040001400400034014044
:10273000004C01400050014000540140001800408E
:10274000001C0040002000400040014000440140C7
:102750000048014002460020138A92890B4202EA97
:10276000010202D0002A00D001207047002A82898D
:1027700001D00A4300E08A4382817047018921F039
:10278000070101817047000030B5028C22F0010280
:102790000284028C8388048B22F0020224F07305E9
:1027A0000C882C430D8915434A882A43114DA842B1
:1027B0000BD0114DA84208D0104DA84205D0104DA5
:1027C000A84202D00F4DA8420DD122F008054A8937
:1027D00023F440732A4322F004058A882A438D8912
:1027E0001D43CB892B4383800483C988818602845F
:1027F00030BD0000002C0140003401400040014089
:10280000004401400048014070B5028C22F01002E3
:102810000284028C8388048B0D8824F4E6464FF6EC
:10282000FF7404EA052535430E8922F0200204EAEC
:10283000061616434A8804EA02123243104EB0428A
:1028400002D0104EB04215D122F080064A8923F4FE
:10285000406304EA0212324322F040068A8804EA06
:10286000021232438E8904EA86061E43CB8904EAAB
:102870008303334383800583C9880187028470BD45
:10288000002C01400034014070B5028C22F48052CB
:102890000284058C8288838B0C8823F4E6464FF6ED
:1028A000FF7303EA0424344325F400560D8903EA38
:1028B000053535434E8803EA06362E43094DA842B6
:1028C00002D0094DA84205D122F480458A8903EA45
:1028D00082122A4382808483C988A0F8401006842B
:1028E00070BD0000002C0140003401400021018037
:1028F00041808180C180018141818181C181704796
:102900008186704701877047A0F84010704700002B
:1029100030B502881B4C1C4DA0420DD0A8420BD0F4
:10292000B0F1804F08D0194B984205D0184B98420F
:1029300002D0184B984203D122F070034A881A4300
:10294000154B984206D0154B984203D022F44073A1
:10295000CA881A4302808A8882850A880285A04232
:102960000AD0A84208D00E4A904205D00D4A9042A3
:1029700002D00D4A904201D1097A0186012181825B
:1029800030BD0000002C0140003401400004004034
:1029900000080040000C00400010004000140040FF
:1029A0000040014000440140004801402DE9F04F43
:1029B00040F22555AFB02946FE4C204600F09EFC63
:1029C000002815D02946204600F04EFC204600F095
:1029D00023FDF94CC0B2DFF8E4A360700A280AD0E6
:1029E000217809B9202803D00AF80100491C217078
:1029F0002FB0BDE8F08F2078002702287DD3EF4963
:102A0000022201F58070FDF7C1FBEDA1ED48FDF755
:102A1000C9FBED4D012600B92E700522E749E948B2
:102A2000FDF7B4FBE9A1E748FDF7BCFB00B92E7048
:102A30000522E249E348FDF7A9FBE6A1E148FDF7DD
:102A4000B1FB00B92F7020780A28D7D3DB490C22BC
:102A500001F5CB70FDF79AFBDA48E0A19630FDF75F
:102A6000A1FB0A256FF02F0900287DD1D5484FF42E
:102A7000807B59469630FDF77EFBD049CE48042234
:102A800021313430FDF782FBCB4934310878CA78E4
:102A9000303800EB4003C3EBC01002EBC0034A78B0
:102AA000642042438878D1A100EB800002EB400013
:102AB0001844A0F5A050D038E080BF483430FDF76E
:102AC00071FBDFF8308358B3CBA000F017FDBB4992
:102AD000B94888F8007003220D311630FDF756FB17
:102AE000B649B548032211311B30FDF74FFBB349FE
:102AF000B14802221531203000E04FE1FDF746FBDE
:102B0000AD49C846203148780978A1F1300202EB7E
:102B1000820309EB43020244228120290ED00FE0F8
:102B2000B9A000F0EBFCFEF747FE00211023BBA28A
:102B30000846FEF7BAFF88F80060A1E0303820812F
:102B40009E499D48022218312530FDF71FFB9A4807
:102B5000253041780078303800EB800208EB4200E5
:102B600008446081022200E093E0944992481B31BE
:102B70002A30FDF70BFB90482A3041780078303836
:102B800000EB800208EB42000844A0818B498A4890
:102B900002221E312F30FDF7F9FA87482F30417895
:102BA0000078303800EB800208EB42000844E081F6
:102BB00081489DA11B30FDF7F5FA00B9A6807E483B
:102BC0009AA11B30FDF7EEFA08B90220A0807A48DE
:102BD00097A11B30FDF7E6FA08B90320A0807648DC
:102BE00094A11B30FDF7DEFA08B90420A0807248DA
:102BF00091A11B30FDF7D6FA08B90520A0806E48D8
:102C00008EA11B30FDF7CEFA08B90620A0806A48D5
:102C10008BA11B30FDF7C6FA08B90720A0806648D3
:102C200088A11B30FDF7BEFA08B90820A0806248D1
:102C300085A11B30FDF7B6FA08B90920A0805E48CF
:102C400083A11B30FDF7AEFA00B9A5805A4881A1D7
:102C50001B30FDF7A7FA08B90B20A08056487EA1CB
:102C60001B30FDF79FFA08B90C20A080A07B217BC8
:102C7000CDE90010A37A227A2179E088FFF7B8FA2B
:102C8000504859469630FDF776FA802102A8FDF7A4
:102C900072FA4C4871A19630FDF784FA00287DD174
:102CA00048484FF4807841469630FDF764FA6FA0AB
:102CB00000F024FC41492422563125A8FDF766FA8C
:102CC00025A970A000F01AFC3E4905227F3901F2C7
:102CD0001510FDF75BFA3B486EA19630FDF762FADE
:102CE0000028DCD1374841469630FDF744FA354993
:102CF0000522763901F58670FDF748FA314867A15B
:102D00009630FDF74FFA0028C9D12E48414696303B
:102D1000FDF731FA9AF89200D0464F2848D198F83A
:102D20009300DFF880A14FF03A0B4E2841D1404686
:102D3000AAF8006010F89D1F98F89E30303901EB1A
:102D4000810109EB410103EB010CA4F810C081786B
:102D5000C378303901EB810109EB410119446182EB
:102D6000437998F8A100C9B2303800EB800009EB34
:102D700040001844A082C0B2CDE900100CF0FF035F
:102D8000227A2179E088FEF7FBFF208AB0FBF5F17B
:102D900030318DF88810B0FBF5F100E0F9E105FB6A
:102DA000110030308DF889008DF88AB0608A7BE0A0
:102DB0001EE1AAE000380140140000208803002032
:102DC0004F4B000088040020670300207265616497
:102DD000790000004552524F520000002B434950E9
:102DE000534E545054494D4500000000313937309E
:102DF0000000000066030020CAB1BCE4CDACB2BD47
:102E0000B3C9B9A60A00000031393730B5C8B4FDDE
:102E1000CAB1BCE4CDACB2BD0A0000005761697410
:102E2000205254432E2E2E004A616E0046656200E9
:102E30004D617200417072004D6179004A756E00FB
:102E40004A756C004175670053657074000000009E
:102E50004F6374004E6F7600446563002B4D5154F0
:102E60005453554252454356000000004D515454AE
:102E7000C3FCC1EEBDD3CAD5CDB7D5FDC8B70D0AC9
:102E800000000000726571756573745F69643D25AB
:102E9000730D0A007061726173000000706F7765D6
:102EA000720000007C030020B0FBF5F230328DF898
:102EB0008B20B0FBF5F205FB120030308DF88C0052
:102EC0008DF88DB0A08A8DF89070B0FBF5F130319F
:102ED0008DF88E10B0FBF5F105FB110030308DF848
:102EE0008F00B2480680FEF767FC1823B0A20621C7
:102EF0000020FEF7DAFD182322AA06212020FEF783
:102F0000D4FD98F892004F2872D198F8931040465B
:102F100046296DD190F89410462969D1AAF800701D
:102F200090F89F3010F89E1F303901EB810109EBBA
:102F3000410103EB010CA4F810C08178C37830394B
:102F400001EB810109EB410119446182437998F851
:102F5000A200C9B2303800EB800009EB40001844F1
:102F6000A082C0B2CDE900100CF0FF03227A2179D3
:102F7000E088FEF705FF208AB0FBF5F130318DF8CF
:102F80008810B0FBF5F105FB110030308DF8890099
:102F90008DF88AB0608AB0FBF5F230328DF88B2064
:102FA000B0FBF5F205FB120030308DF88C008DF887
:102FB0008DB0A08A8DF89070B0FBF5F130318DF8AE
:102FC0008E10B0FBF5F105FB110030308DF88F004D
:102FD00076480680FEF7F0FB182375A20621002034
:102FE000FEF763FD182322AA06212020FEF75DFDCF
:102FF000C14698F8A100DFF8C081412848D199F86E
:10300000A21048464C2976D190F8A3104C2972D1D1
:1030100090F8921099F8930064223039514300EBF4
:10302000800001EB4000A0F5F0706080A8F800007F
:10303000A8F80200A8F8040060A000F05FFA614E52
:1030400061883046FFF75CFC61883046FFF75AFC28
:1030500061883046FFF758FC4FF4967000F0FEFE92
:103060006688B6FBF5F0FDF704FB8246B6FBF5F08B
:10307000FDF7FFFA8346B6FBF5F0FDF7FAFA52A228
:10308000CDE9002A01465B4650A251A0FEF754F854
:1030900099F8A1004E464C286DD196F8A20031282F
:1030A00023D116F8921F642030394143707800EB29
:1030B000800001EB4000A0F5F07081B26180A8F8BB
:1030C00000104048FFF71CFC4FF4967000F0C6FE5D
:1030D0006088B0FBF5F0FDF7CCFA01463CA0FEF7A6
:1030E00003F8F07B923E4C2845D196F8A200322896
:1030F00002D033281FD03EE016F8921F64203039EA
:103100004143707800EB800001EB4000A0F5F070C7
:1031100081B26180A8F802102A48FFF7F3FB4FF450
:10312000967000F09BFE6088B0FBF5F0FDF7A1FA09
:10313000014626A01DE016F8921F64203039414355
:10314000707800EB800001EB4000A0F5F07081B2D8
:103150006180A8F804101B48FFF7D6FB4FF4967067
:1031600000F07CFE6088B0FBF5F0FDF782FA0146C6
:1031700015A0FDF7B9FF25AA16A11F4800F0BEF95A
:103180004FF480711D48FCF7F6FF802102A8FCF780
:10319000F2FF27704FF480711948FCF7ECFF1748D5
:1031A00096219638FCF7E7FF22E400007803002020
:1031B00053455420000000007E030020B9D8B5C656
:1031C0000D0A0000000800404C3300004C320000A3
:1031D0004C310000363438333063393930313535CD
:1031E0003461353933333966646634315F323032B5
:1031F00033303630390000000C4A00081E0500202C
:103200008803002070B5154C40F22551204600F08F
:1032100075F800280ED0204600F0FEF8104AC1B222
:103220001088030406D444044FF0000306D50A298D
:1032300001D0138070BD40F400400DE00D2909D08D
:10324000C0F30D04074D401C80B229551080C728DB
:10325000EFD870BD40F48040108070BD0044004045
:10326000680300201E0600200A0A01219140C9437C
:10327000018070470029818902D041F4005101E0AA
:1032800021F4005181817047174910B588420AD155
:1032900001218C032046FEF7EBFC2046BDE81040E0
:1032A0000021FEF7E5BC1149884202D101214C04FE
:1032B00010E00F49884202D101218C040AE00D4937
:1032C000884202D10121CC0404E00B4988420AD192
:1032D00001210C052046FEF7B3FC2046BDE8104056
:1032E0000021FEF7ADBC10BD003801400044004095
:1032F00000480040004C00400050004070B501F014
:103300001F0501260024C1F3421306FA05F2012B22
:103310000FD0022B0FD0838A4FEA1121008813426D
:1033200006FA01F600EA060001D000B101242046A9
:1033300070BD8389F0E7038AEEE710B5C1F342134D
:1033400001F01F040121A140012B07D0022B07D05F
:103350001430002A026805D00A4304E00C30F8E774
:103360001030F6E78A43026010BD000030B5044615
:10337000008A85B00D464CF6FF710840E98801438C
:103380002182A0894EF6F3110840A9882A891143A9
:103390006A8902431143A181A08A4FF6FF41084088
:1033A000A9890143A1826846FEF774FC194884424A
:1033B00001D1039800E00298A189090400EBC00143
:1033C00001EB0010296801D5490000E08900B0FB3D
:1033D000F1F06422B0FBF2F109010B096FF018055E
:1033E0006B4300EB8300A3891D044FF0320306D525
:1033F00003EBC000B0FBF2F000F0070005E003EBC8
:103400000010B0FBF2F000F00F000843208105B07F
:1034100030BD0000003801408088C0F308007047CC
:10342000FEE70000064810B540680649FCF720FF9B
:103430000549FCF74FFF10F1FF4F00D3002010BDEE
:10344000700300200080984400005C432DE9F041A7
:10345000124F04464FF4805631463846FDF739FE88
:1034600000254FF4806804F08000802841463846EB
:1034700011D0FDF72EFE6006040E31463846FDF7EA
:103480002AFE31463846FDF724FE6D1CEDB2082DAC
:10349000E9D3BDE8F081FDF71EFEECE70010014026
:1034A00010B50446FEF790F87820FFF7CFFFFEF73F
:1034B000B9F80020FFF7CAFFFEF7B4F82046FFF77F
:1034C000C5FFFEF7AFF8BDE81040FEF797B810B59E
:1034D0000446FEF779F87820FFF7B8FFFEF7A2F868
:1034E0004020FFF7B3FFFEF79DF82046FFF7AEFF41
:1034F000FEF798F8BDE81040FEF780B80FB4054B12
:1035000010B503A9044A029800F0EEF810BC5DF86B
:1035100014FB0000E13F00086C0300200FB4084BCF
:1035200010B504A902AA039800F0DEF8044602A927
:10353000002000F070FC204610BC5DF814FB000079
:10354000173E000802E008C8121F08C1002AFAD17D
:1035500070477047002001E001C1121F002AFBD113
:10356000704700002DE9FF5F82B00021DDE90430E3
:10357000020DDDF840B0034318D044F61050A2F21B
:10358000FF3242431514119801281FD0A5EB0B0000
:10359000401C5FEA000A4FF000064E4FDFF83891FA
:1035A000B046504615D5CAF1000413E01198012425
:1035B0004AA3012801D16FEA0B010298119AC0E9D0
:1035C0000031C0E9024206B0BDE8F09FCBF1000037
:1035D000DFE704460021404A491842EB0450CDE998
:1035E000001012E0E00707D032463B46404649460D
:1035F000FCF755FF8046894632463B461046194641
:10360000FCF74DFF06460F466410002CEAD1DDE9B9
:103610000401DDE90023BAF1000F06DAFCF73FFFF1
:1036200042464B46FCF73BFF05E0FCF7AAFF42464B
:103630004B46FCF7A6FF04460E460022284BFDF73A
:1036400049F803D84FF0FF30014607E00022254B30
:1036500020463146FCF77CFEFDF77CF9102409E09A
:10366000002C0ADB0A220023FDF77EF8039B303290
:103670001A55641E50EA0102F2D1641C039AC4F187
:1036800011031444119A012A03D0012208430DD1D9
:103690000AE0084304D000204FF0110B119072E7AC
:1036A000A3EB0B056D1E0DE05B4504DD4FF0000242
:1036B00005F1010504E003DA4FF00002A5F1010570
:1036C000002AECD002981199C0E90231C0E9004506
:1036D00079E70000000014400000F03F30000000D7
:1036E0000000F0430000E03F2DE9FF4F95B09B46FE
:1036F0008946064600250FE2252877D10024274673
:10370000F84A0121059400E0044316F8013F203BEC
:1037100001FA03F01042F7D130782A2811D06FF067
:103720002F033078A0F13002092A16D8059A44F008
:10373000020402EB820203EB42021044761C059065
:10374000EFE759F8042B0592002A03DA504244F4BB
:103750000054059044F00204761C30782E2816D1CF
:1037600016F8010F44F004042A280DD06FF02F0240
:103770003078A0F13003092B09D807EB870302EB5F
:103780004303C718761CF3E759F8047B761C30789E
:103790006C280FD006DC4C2817D068280DD06A287A
:1037A00014D104E0742810D07A280FD10DE044F42D
:1037B00000140AE044F4801401E044F440147278E8
:1037C000824202D104F58014761C761C307866287B
:1037D0000BD013DC582877D009DC002875D0452899
:1037E000F6D04628F4D047281AD19DE118E0632886
:1037F00035D0642879D0652812D195E1702873D02E
:1038000008DC6728F1D069286FD06E280DD06F28AA
:1038100006D1B5E073282CD0752875D0782874D0DF
:103820005A46179990476D1C75E1C4F3025002285F
:1038300009D003280DD0D9F8001004280DD00D6050
:1038400009F1040967E1D9F80010EA17C1E900524B
:10385000F6E7D9F800100D80F2E70D70F0E719F8DF
:10386000041B8DF8001000208DF80100EA460120AD
:1038700003E059F804AB4FF0FF3061074FF000014F
:1038800002D40DE008F101018846B9420FDA804503
:10389000F8DB1AF808100029F4D108E008F101015A
:1038A00088468142FADB1AF808100029F6D10598FB
:1038B0005B46A0EB080721463846179A00F094FAB9
:1038C000284400EB080507E04DE029E10DE01AF877
:1038D000010B5A4617999047B8F10108F7D25B4699
:1038E00021463846179A13E142E00A220092C4F3B7
:1038F00002524FF0000A022A08D059F804CB032ADA
:103900004FEAEC710AD00DE029E02AE009F1070145
:1039100021F00702F2E802C1914609E00FFA8CFC9F
:103920004FEAEC71042A03D14FFA8CFC4FEAEC7198
:10393000002907DA0A460021DCF1000C61EB0201E4
:103940002D2202E0220504D52B228DF8042001222D
:1039500003E0E20701D02022F7E7904659E00A2170
:1039600002E010220DE010214FF0000A00910BE060
:1039700010224FF0000A44F004040827009203E0EC
:1039800008224FF0000A0092C4F30252022A05D026
:1039900059F804CB0021032A08D009E009F10701F6
:1039A00021F00702F2E802C1914605E01FFA8CFC03
:1039B000042A01D10CF0FF0C4FF00008220728D593
:1039C000702806D0009B83F0100353EA0A0305D049
:1039D0000EE040228DF80420012208E05CEA01029A
:1039E00006D030228DF804208DF805000222904682
:1039F000009B83F0080353EA0A030AD15CEA010240
:103A000001D1620705D530228DF804204FF001085E
:103A10007F1E582804D034A003900EA802900DE019
:103A200036A0F9E753466046009AFCF79DFE8446AF
:103A30000398825C0298401E029002705CEA0100CA
:103A4000F0D1029806A9081A00F1200A600702D5F1
:103A500024F4803400E00127574502DDA7EB0A007B
:103A600000E0002000EB0A01009005984144401A54
:103A70000590E00306D45B462146179A059800F0AE
:103A8000B3F90544002706E001A85A46C05D17991E
:103A900090476D1C7F1C4745F6DBE0030CD55B4669
:103AA0002146179A059800F09FF9054404E030205C
:103AB0005A46179990476D1C0099481E009000299E
:103AC000F5DC08E0029802995A460078491C0291F8
:103AD000179990476D1CBAF10001AAF1010AF1DCB7
:103AE00065E10000092801003031323334353637C2
:103AF000383961626364656600000000303132333A
:103B000034353637383941424344454600000000D9
:103B100000F058F90544761C307800287FF4ECADAD
:103B200019B02846BDE8F08F620700D4062709F1D6
:103B3000070222F0070CFCE80223E14603F00048EC
:103B40005FEA080C02D00FF2702C0DE05FEA045C13
:103B500002D50FF2682C07E05FEAC47C02D00FF2B6
:103B6000602C01E0AFF2700C4FF0FF3823F00043FF
:103B7000CDF850C065280CD006DC452809D0462871
:103B80001DD047283DD13DE0662818D067287ED15A
:103B900038E00021112F01DB112000E0781CCDE975
:103BA000000106A90EA8FFF7DDFCDDE90F010E9A62
:103BB00003910021009207F1010A04914DE04FF0BA
:103BC00000400097CDE9011006A90EA8FFF7CAFC36
:103BD000DDE90F0203920E9B11990022DDF80CA083
:103BE0000093049211B9791C00EB010AB7EB0A00AB
:103BF00004D4C0F1FF3007F1010A0490AAEB0700DA
:103C0000019044E0012F00DA01270021112F01DD8E
:103C1000112000E03846CDE9000106A90EA8FFF703
:103C2000A1FCDDE90F010E9A03910021049100929D
:103C3000BA4621070CD40399514500DA8A46BAF1F5
:103C4000010F05DD009AAAF10101515C302908D06D
:103C5000B84202DA10F1040F06DA0121CDE90110B1
:103C600015E0AAF10101E9E7002805DC0499014407
:103C70000491AAEB000102E0411C514500DD8A4697
:103C80000499401A401C01904FF000400290200718
:103C900004D40198504501DBCDF8048000208DF854
:103CA0004F0002980DF14F07B0F1004F25D02B20A7
:103CB0000E9002984FF0020800280CDA4042029061
:103CC0002D200E9007E00A210298FCF737FD3031D5
:103CD000029007F8011DB8F10001A8F10108F2DC1B
:103CE00002980028EFD1791E0E980870307800F005
:103CF000200040F0450007F8020D12A8C01B00F19B
:103D000007081498007800B1012000EB0A0101981F
:103D100001EBE07105984144401A401E0590E00314
:103D200006D45B462146179A059800F05DF80544D5
:103D30001498007818B15A46179990476D1CE00303
:103D400024D55B462146179A059800F04DF80544A6
:103D50001CE00498002807DBDDE90301884203DD4D
:103D60000098405C179901E0179930205A46904717
:103D7000049805F10105401C04900198401E019033
:103D800004D12E205A46179990476D1CBAF10001B4
:103D9000AAF1010ADDDC05E017F8010B5A46179974
:103DA00090476D1CB8F10001A8F10108F4DC5B46F6
:103DB0002146179A0598ABE62D0000002B00000065
:103DC000200000002DE9F041044600251E4617465C
:103DD000880404D405E039462020B0476D1C641ED9
:103DE000F9D52846BDE8F0812DE9F04104460025CB
:103DF0001E469046C80301D5302700E020278804DE
:103E000004D505E041463846B0476D1C641EF9D51F
:103E10002846BDE8F0810A68531C0B60107070479B
:103E200010B56FF00400FEF7E3FA0948094900688D
:103E3000B0FBF1F00849C0B200EB40020870C2EBE1
:103E4000C0104FF6FF7202EAC000488010BD0000AB
:103E50000000002000127A00620000200B4949880F
:103E600048434FF0E021486100238B61086940F02E
:103E7000010008610869C20701D0C003FAD50869CA
:103E800020F0010008618B61704700006200002093
:103E900030B5504C85B021780A20B1FBF0F13031BB
:103EA0008DF808102178B1FBF0F200FB12113031CF
:103EB0008DF809103A228DF80A206178B1FBF0F1F3
:103EC00030318DF80B106178B1FBF0F300FB13116A
:103ED00030318DF80C108DF80D20A178B1FBF0F188
:103EE00030318DF80E10A178B1FBF0F200FB12100A
:103EF00030308DF80F00002010258DF8100000954F
:103F0000A28804230146FDF79BFD002211462020D4
:103F1000FDF714FDA07900950A280BD20022012399
:103F200011463020FDF78CFD0095A2790123002178
:103F3000382003E0A279022300213020FDF780FD24
:103F4000012200214020FDF7F9FCE07900950A28C4
:103F50000BD20022012311465020FDF771FD009580
:103F6000E27901230021582003E0E27902230021B5
:103F70005020FDF765FD022200216020FDF7DEFCE8
:103F8000102302AA02210020FDF78FFD1023124A00
:103F900002215020FDF789FD10480088002816D125
:103FA0000323092206211020FDF7F0FCFDF71AFE7D
:103FB00002460220CDE90005034606214020FDF718
:103FC0008FFD1023572206216620FDF7F5FC05B072
:103FD00030BD0000861600202A0000207803002053
:103FE00004490A885206FCD5024AC1B2121D11804A
:103FF00070470000003801407FB501210920FDF71E
:104000002BFE4FF4C044ADF80C4004208DF80F0097
:1040100003208DF80E0003A91648FDF705F84FF4AC
:104020000050FCF79FFF4FF48040FCF79BFF0D21F1
:104030000120FCF7E5FF0E210120FCF7E1FF0094D1
:1040400000248DF804400C208DF8050001258DF822
:1040500006506846FCF79CFF28208DF808008DF874
:1040600009408DF80A408DF80B5002A8FDF768FB57
:104070007FBD0000000C01401CB5FFF7D1FEFDF72D
:10408000B9FBFFF7B9FF4FF4E13000F055F8FDF749
:1040900093F8FDF7EBFAFCF77BFDFEF73DF841F6F0
:1040A0001F414CF24F30FEF733FA4FF4A060FDF79A
:1040B00079FB00F025F800210AA0CDE900010B46AC
:1040C00009A20AA0FDF738F84FF49670FFF7C6FE74
:1040D000FDF772FB4FF47A74FFF7DAFE2046FFF724
:1040E000BDFEF9E74C3300004C3200004C310000BB
:1040F0000346012000E05843491EC9B2FBD2704775
:1041000070B54FF47A75064C05E006A0FFF7F6F996
:104110002846FFF7A3FE21780029F6D170BD0000E4
:104120006603002041542B434950534E5450544988
:104130004D453F0D0A000000F0B5064687B001214D
:1041400044F20400FDF788FD224D2846FFF79CF855
:104150006815ADF8100003248DF8124018201E4F8A
:104160008DF8130004A93846FCF75EFF2815ADF85A
:10417000100004208DF8130004A93846FCF754FF02
:1041800025208DF8140001218DF815108DF81640AA
:104190008DF8171005A8FDF7D3FA0021ADF8081027
:1041A000ADF804100C20ADF80610ADF80C10ADF809
:1041B0000A00009669462846FFF7D8F8012240F227
:1041C00025512846FFF7B9F801212846FFF752F894
:1041D00007B0F0BD003801400008014000000000B9
:1041E00000000000002F000000000700070000147E
:1041F0007F147F1400242A7F2A120062640813238C
:1042000000364955225000000503000000001C2222
:104210004100000041221C000014083E0814000860
:10422000083E0808000000A0600000080808080810
:10423000000060600000002010080402003E5149A8
:10424000453E0000427F4000004261514946002146
:1042500041454B31001814127F1000274545453960
:10426000003C4A49493000017109050300364949BB
:10427000493600064949291E000036360000000074
:1042800056360000000814224100001414141414BF
:104290000000412214080002015109060032495968
:1042A000513E007C1211127C007F49494936003E84
:1042B00041414122007F4141221C007F494949413F
:1042C000007F09090901003E4149497A007F080839
:1042D000087F0000417F4100002040413F01007FF6
:1042E00008142241007F40404040007F020C027FC2
:1042F000007F0408107F003E4141413E007F0909D4
:104300000906003E4151215E007F091929460046F9
:10431000494949310001017F0101003F4040403FD0
:10432000001F2040201F003F4038403F006314081A
:1043300014630007087008070061514945430000F5
:104340007F41410000552A552A55000041417F0018
:10435000000402010204004040404040000001020D
:104360000400002054545478007F484444380038F6
:104370004444442000384444487F0038545454187E
:1043800000087E0901020018A4A4A47C007F080490
:1043900004780000447D4000004080847D00007F60
:1043A000102844000000417F4000007C041804787D
:1043B000007C0804047800384444443800FC242479
:1043C00024180018242418FC007C08040408004861
:1043D0005454542000043F444020003C4040207C82
:1043E000001C2040201C003C4030403C0044281071
:1043F0002844001CA0A0A07C004464544C44141425
:10440000141414140000000000000000000000005C
:1044100000000000000000F8000000000000003371
:104420003000000000100C06100C06000000000018
:104430000000000040C07840C0784000043F040401
:104440003F04040000000000000000000000000025
:1044500000000000F008F000E018000000211C033C
:104460001E211E0000F00888700000001E21232479
:104470001927211010160E00000000000000000097
:1044800000000000000000E0180402000000000727
:104490001820400000020418E0000000004020182E
:1044A00007000000404080F0804040000202010F01
:1044B00001020200000000F0000000000101011FE5
:1044C00001010100000000000000000080B0700049
:1044D00000000000000000000000000000010101D9
:1044E0000101010100000000000000000030300068
:1044F0000000000000000000806018040060180642
:104500000100000000E010080810E000000F10207B
:1045100020100F00001010F8000000000020203FC5
:10452000202000000070080808887000003028244F
:1045300022213000003008888848300000182020F0
:1045400020110E000000C02010F800000007042415
:10455000243F240000F8088888080800001921205A
:1045600020110E0000E0108888180000000F1120B4
:1045700020110E0000380808C83808000000003F6D
:10458000000000000070880808887000001C2221CC
:1045900021221C0000E010080810E0000000312279
:1045A00022110F00000000C0C00000000000003019
:1045B000300000000000008000000000000080606B
:1045C00000000000000080402010080000010204EC
:1045D00008102000404040404040400004040404D3
:1045E000040404000008102040800000002010088F
:1045F00004020100007048080808F00000000030C4
:1046000036010000C030C828E810E0000718272451
:1046100023140B000000C038E0000000203C2302FF
:104620000227382008F8888888700000203F202062
:1046300020110E00C0300808080838000718202094
:104640002010080008F808080810E000203F20208B
:1046500020100F0008F88888E8081000203F20206C
:104660002320180008F88888E8081000203F200060
:1046700003000000C0300808083800000718202098
:10468000221E020008F808000008F808203F210157
:1046900001213F20000808F8080800000020203F02
:1046A0002020000000000808F8080800C080808072
:1046B0007F00000008F888C028180800203F20016B
:1046C0002638200008F8080000000000203F2020C5
:1046D0002020300008F8F800F8F80800203F003FDC
:1046E000003F200008F830C00008F808203F2000F4
:1046F00007183F00E01008080810E0000F10202005
:1047000020100F0008F808080808F000203F2101D9
:1047100001010000E01008080810E0000F18242430
:1047200038504F0008F8888888887000203F2000A3
:10473000030C302000708808080838000038202159
:1047400021221C00180808F8080818000000203F63
:104750002000000008F808000008F808001F2020CA
:1047600020201F000878880000C83808000007389B
:104770000E010000F80800F80008F800033C0700EC
:10478000073C0300081868808068180820302C0354
:10479000032C30200838C800C83808000000203F2B
:1047A0002000000010080808C8380800203826211A
:1047B00020201800000000FE020202000000007F1E
:1047C00040404000000C30C000000000000000012C
:1047D0000638C00000020202FE0000000040404017
:1047E0007F0000000000040202020400000000003C
:1047F00000000000000000000000000080808080B9
:1048000080808080000202040000000000000000A0
:104810000000000000008080808000000019242239
:1048200022223F2008F8008080000000003F112075
:1048300020110E000000008080800000000E11207A
:1048400020201100000000808088F800000E112058
:1048500020103F200000808080800000001F222266
:1048600022221300008080F0888888180020203FD2
:10487000202000000000808080808000006B9494E5
:104880009493600008F8008080800000203F2100A1
:1048900000203F2000809898000000000020203F6A
:1048A00020200000000000809898000000C0808058
:1048B000807F000008F8000080808000203F2402F4
:1048C0002D302000000808F8000000000020203FE4
:1048D000202000008080808080808000203F200099
:1048E0003F20003F8080008080800000203F21002A
:1048F00000203F200000808080800000001F2020DA
:1049000020201F00808000808000000080FFA12008
:1049100020110E000000008080808000000E112019
:1049200020A0FF80808080008080800020203F21A8
:10493000200001000000808080808000003324245B
:1049400024241900008080E0808000000000001F07
:10495000202000008080000000808000001F2020B8
:1049600020103F20808080000080808000010E3079
:104970000806010080800080008080800F300C03DA
:104980000C300F0000808000808080000020312EDD
:104990000E312000808080000080808080818E70B9
:1049A0001806010000808080808080000021302C6B
:1049B0002221300000000000807C02020000000084
:1049C000003F404000000000FF0000000000000029
:1049D000FF0000000002027C800000000040403F19
:1049E00000000000000601010202040400000000B3
:1049F0000000000000030306010406020500030591
:104A00001F1C1F1E1F1E1F1F1E1F1E1F41542B4D2C
:104A10005154545055423D302C22246F632F64650D
:104A200076696365732F25732F7379732F636F6DA9
:104A30006D616E64732F726573706F6E73652F7224
:104A40006571756573745F69643D2573222C22223C
:104A50002C302C300D0A000041542B4D5154545031
:104A600055423D302C22246F632F6465766963655F
:104A7000732F25732F7379732F70726F7065727433
:104A80006965732F7265706F7274222C227B5C22B1
:104A900073657276696365735C223A5B7B5C227333
:104AA0006572766963655F69645C223A5C2225738E
:104AB0005C225C2C5C2270726F7065727469657325
:104AC0005C223A7B5C2225735C223A2025667D7D40
:104AD0005D7D222C302C300D0A00000041542B4DFE
:104AE0005154545055423D302C22246F632F64653D
:104AF00076696365732F25732F7379732F70726FC7
:104B0000706572746965732F7265706F7274222C90
:104B1000227B5C2273657276696365735C223A5B03
:104B20007B5C22736572766963655F69645C223AB7
:104B30005C2225735C225C2C5C2270726F70657243
:104B4000746965735C223A7B5C2225735C223A258A
:104B5000665C2C5C2225735C223A25665C2C5C2208
:104B600025735C223A25667D7D5D7D222C302C30BC
:104B70000D0A000066643331663964633530386588
:104B800065633633613832346362353039323264CA
:104B9000343636373239316433356164383533620F
:104BA00037653434623565633733353039353735F9
:104BB0006661386400000000D84B00080000002047
:104BC00088030000A8090008D04C000888030020D2
:104BD00008170000543500081184A24A0400093A5D
:104BE00001020304060708096D020406084AB94ECB
:104BF0001D2018C744012AFC057970A11D04040476
:104C000007042B04FF050A110421215BFE22010287
:104C100013FE3E8040300F0201041642827F4BFE9D
:104C2000820109123F414BFF40010216FF1BF88829
:104C3000012AFF050215F81B1F08012A7F200C120C
:104C40009F80F07F2A027D3AFA830A1002C03B60FF
:104C50001F7D0008337F404044584040031E3636D5
:104C6000093CC0151060028C000B114464544D4681
:104C7000445464C404180804047E0180403EE721C3
:104C80000C4F7E80E0C0199C1AF8040F101010FF22
:104C90001010109F11000F131030101F088848309B
:104CA0000E014080403F080E1114A4442434AD6628
:104CB00024940444A41460180B090808090909FD88
:104CC00009090B090A4F08C00217012B2C010241E8
:0400000508000131BD
:00000001FF
